:020000040800F2
:10000000780A00208901000867240008051E0008FE
:100010006524000885070008152900080000000075
:10002000000000000000000000000000BB240008E9
:10003000A90A000800000000B9240008692500088A
:10004000A3010008A3010008A3010008A301000800
:10005000A3010008A3010008A3010008A3010008F0
:10006000A3010008A3010008A3010008A3010008E0
:10007000A3010008A3010008A3010008A3010008D0
:100080009D0A0008A3010008A3010008A3010008BD
:10009000A3010008A3010008A3010008A3010008B0
:1000A000A3010008A3010008A3010008A3010008A0
:1000B000CD250008A3010008A3010008A301000842
:1000C000A3010008A3010008A3010008A301000880
:1000D000A3010008A301000809290008A3010008E2
:1000E000A3010008A3010008A301000800F002F822
:1000F00000F03AF80AA090E8000C82448344AAF188
:100100000107DA4501D100F02FF8AFF2090EBAE885
:100110000F0013F0010F18BFFB1A43F0010318473B
:10012000942A0000B42A0000103A24BF78C878C18D
:10013000FAD8520724BF30C830C144BF04680C60ED
:10014000704700000023002400250026103A28BF35
:1001500078C1FBD8520728BF30C148BF0B60704739
:100160001FB51FBD10B510BD00F058F81146FFF7C0
:10017000F7FF02F0E1FB00F076F803B4FFF7F2FFBF
:1001800003BC00F07DF8000009488047094800479B
:10019000FEE7FEE7FEE7FEE7FEE7FEE7FEE7FEE737
:1001A000FEE7FEE704480549054A064B7047000094
:1001B000CB250008ED00000878040020780A002014
:1001C00078060020780600204FF0000200B51346A4
:1001D00094469646203922BFA0E80C50A0E80C5067
:1001E000B1F12001BFF4F7AF090728BFA0E80C5018
:1001F00048BF0CC05DF804EB890028BF40F8042B11
:1002000008BF704748BF20F8022B11F0804F18BF7D
:1002100000F8012B7047704770477047754600F033
:100220002BF8AE4605006946534620F00700854688
:1002300018B020B5FFF7B6FFBDE820404FF000062C
:100240004FF000074FF000084FF0000B21F00701BE
:10025000AC46ACE8C009ACE8C009ACE8C009ACE801
:10026000C0098D46704710B50446AFF300802046A4
:10027000BDE81040FFF781BF004870471804002018
:1002800001491820ABBEFEE726000200704770B59A
:1002900005464FF6FF7000224AF201040EE0AB5C07
:1002A00058400023C60702D084EA500000E040080E
:1002B0005B1CDBB2082BF5D3521CD2B28A42EED3C0
:1002C00070BD10B5044600F039F9002829D104F1B9
:1002D0000A0000F0B7F8002823D104F13E0000F036
:1002E00076F800281DD104F15C0000F01BF800280E
:1002F00017D104F1660000F066F9002811D104F16D
:10030000760000F035F900280BD104F18A0000F0E6
:100310002BF8002805D104F1AE00BDE8104000F034
:10032000AFB810BD1CB504466A4603212E2000F06C
:10033000D3F8002816D1BDF800002080BDF80200D7
:100340006080BDF80400A0806A460221322000F0DF
:10035000C3F8002806D1BDF80000E080BDF8020017
:10036000208100201CBD000030B589B004466A46DB
:100370001221562000F0B0F8002826D1002269464C
:1003800002EB4200521C31F8103024F8103001EB1F
:10039000400304EB40005D8845809B88D2B2838097
:1003A000032AEDD35FF0000202EB420301EB4300AE
:1003B00004EB4303458A5D82858A9D82521CC08A74
:1003C000D2B2D882032AEFD3002009B030BD10B5D5
:1003D00088B004466A460F211F2000F07DF80028EF
:1003E0002DD1BDF800002080BDF802006080BDF86E
:1003F0000400A080BDF80600E080BDF80800208160
:10040000BDF80A006081BDF80C00A081BDF80E00A7
:10041000E081BDF810002082BDF812006082BDF8B6
:100420001400A082BDF81600E082BDF818002083F9
:10043000BDF81A006083BDF81C00A083002008B03E
:1004400010BD000010B504460C4A1A21052000F02A
:1004500043F8002811D1094A00210A3A02EB410071
:10046000837A04F81130408904EB4103000A491CE7
:10047000C9B258701A29F1D3002010BDCE03002054
:1004800010B586B004466A460A21682000F024F8B8
:1004900000281ED1BDF800002080BDF80200608059
:1004A000BDF80400A080BDF80600E080BDF808009B
:1004B0002081BDF80A006081BDF80C00A081BDF864
:1004C0000E00E081BDF810002082BDF812006082AD
:1004D000002006B010BD00002DE9F041164C0D467D
:1004E00001212170032161700021A170E070217150
:1004F00016460527657106212046FFF7C8FEA07144
:10050000000AE07107EB45010820C9B200F09AF833
:1005100000280FD104F5807109E000BF01EB400213
:10052000B2F8032052BA26F81020401CC0B2A842EC
:10053000F4D30020BDE8F081C40100203EB504469C
:100540006A4605210020FFF7C7FF00280FD1BDF83C
:1005500000002080BDF802006080BDF80400A0808B
:10056000BDF80600E080BDF80800208100203EBDF7
:1005700010B586B004466A460A214A20FFF7ACFF50
:1005800000281ED1BDF800002080BDF80200608068
:10059000BDF80400A080BDF80600E080BDF80800AA
:1005A0002081BDF80A006081BDF80C00A081BDF873
:1005B0000E00E081BDF810002082BDF812006082BC
:1005C000002006B010BD1FB504466A46082142202F
:1005D000FFF782FF002818D1BDF800002080BDF889
:1005E00002006080BDF80400A080BDF80600E08035
:1005F000BDF808002081BDF80A006081BDF80C003C
:10060000A081BDF80E00E081002004B010BD000004
:100610000A4601460A4810B5C823006801F048FBA5
:10062000022806D0032807D0002801D06FF0200050
:1006300010BD6FF01E0010BD6FF01F0010BD000058
:1006400020000020F8B5024627480D46006820B17A
:10065000052D05D26FF00500F8BD4FF0FF30F8BD55
:1006600001680B6849680091016801E04B680093DC
:100670000B68DB439B06F9D500214164C8231B4965
:1006800001F06FFB10B16FF00100F8BD02211848B6
:10069000FFF7BEFF0028F8D1154C6078000600D5A2
:1006A0000525AE1EF1B2A01CFFF7B2FF0028ECD169
:1006B0006019F1B230F8025C0D48FFF7E8FD8542A1
:1006C00002D06FF00300F8BD2078012802D06FF04F
:1006D0000400F8BD6078000603D5A078643040427D
:1006E000F8BD0020F8BD000020000020C40100205B
:1006F000C402002010B50021012000F027F80028D6
:100700001FD10A2000F01AFB0E4C01200621207098
:10071000617000200222A070E270102222716071CC
:100720002046FFF7B4FDA071000AE07106480822D8
:10073000C8232146006801F014FB002801D06FF0A7
:10074000010010BDC40100202000002010B50C4C99
:1007500001220023227006226270A370E070080A52
:100760002071617111462046FFF791FDA071000ACA
:10077000E0710820BDE810400146FFF763BF0000AC
:10078000C4010020FEE7000004494A1C8B1C00B194
:10079000FF200870107018707047000025000020BE
:1007A000F0B515460E460746EFF3108472B60020EA
:1007B000FFF7EAFF012F08D1A848017841F00201B4
:1007C0000170017841F004010170A448401C0B2E17
:1007D00027D2DFE806F0061E3444545C6064697D6D
:1007E0009500017841F001010170017841F00201AA
:1007F0000170017841F004010170017841F00801B5
:100800000170017841F010010170017841F0200180
:1008100006E0017841F002010170017841F0040125
:1008200001708E48801C102D7ED2DFE805F06D87A8
:10083000939BABB3BCC0C5D1E1CDF1FDEEED01782A
:1008400041F001010170017841F00201017001786D
:1008500041F008010170017841F010014BE001788E
:1008600041F001010170017841F00201017001784D
:1008700041F004010170017841F008013BE001788A
:1008800041F002010170017841F004012FE001788C
:1008900041F0010123E0017841F001010BE0017812
:1008A00041F001010170B4E7017841F001010170EC
:1008B000017841F002010170017841F004010170FA
:1008C000017841F008010170017841F010010EE05B
:1008D000017841F001010170017841F002010170DD
:1008E000017841F004010170017841F008010170C4
:1008F000017841F020010170017841F040018FE75B
:10090000017841F00101DAE7017841F0010101705D
:10091000017841F002010170017841F00401017099
:10092000017841F0080100E010E00170017841F029
:1009300010010170017841F0200106E0017841F0DA
:1009400002010170017841F004010170002C00D116
:1009500062B6F0BD017841F001010170017841F00B
:10096000020168E0017841F001010170017841F075
:1009700002010170017841F004010170017841F039
:1009800008014CE0017841F002010170017841F06A
:10099000040103E0017841F0010120E001700178D9
:1009A00041F020013BE0017841F001010BE00178CA
:1009B00041F001010170C1E7017841F001010170CE
:1009C000017841F002010170017841F0040137E043
:1009D000017841F001010170017841F002010170DC
:1009E000017841F004010170017841F00801D5E778
:1009F000017841F001010170017841F002010170BC
:100A0000017841F0040123E01FE016E00CE0FFE76D
:100A1000017841F008010170017841F01001017086
:100A2000017841F0400190E7017841F00201017046
:100A3000017841F004010170EAE7017841F0010119
:100A40000170017841F0080102E0017841F00101F4
:100A50000170017841F01001A0E70000250000209E
:100A60000D4901280BD0022812D003280FD1087895
:100A700020F001000870087820F0080006E00878EF
:100A800040F001000870087840F0080008707047D6
:100A9000087840F00100EDE725000020014800F053
:100AA00075B8000080010020704772B6FEE710B5EF
:100AB00090F821100022022905D00421816380F8DA
:100AC0002020012010BD01680B6823F00E030B608D
:100AD00001680B6823F001030B6090F84030C46B91
:100AE000012101FA03F3636080F8211080F82020CF
:100AF000104610BD10B590F821100024022903D033
:100B00000421816301243DE001680A6822F00E029D
:100B10000A6001680A6822F001020A601A4A016844
:100B2000914201D1012121E0174A1432914201D1B1
:100B300010211BE0144A2832914201D1891515E099
:100B4000114A3C32914201D189140FE00E4A5032D1
:100B5000914202D14FF4803108E00B4A6432914255
:100B600002D14FF4801101E04FF08071064A083A3B
:100B70005160012180F82110002180F82010416B84
:100B800001B18847204610BD080002402DE9F05F02
:100B9000C16B0C6801680B68D0F840C0042202FAEF
:100BA0000CF2494DDFF824A1494E4A4FDFF828B135
:100BB000DFF828E122422CD05A072AD50A6892068B
:100BC00003D40A6822F004020A600168A94201D134
:100BD000042219E0514501D1402215E0B14202D171
:100BE0004FF4806210E0B94202D14FF480420BE032
:100BF000594502D14FF4802206E0714502D14FF4ED
:100C0000800201E04FF080622F4908394A60C16AD2
:100C10003BE04FF0020808FA0CF818EA040F4FF016
:100C200000094FF0010235D05FEA837832D50B68B6
:100C30009B0605D40B6823F00A030B6080F8212083
:100C40000168A94201D1022219E0514501D12022B7
:100C500015E0B14202D14FF4007210E0B94202D166
:100C60004FF400520BE0594502D14FF4003206E038
:100C7000714502D14FF4001201E04FF000721249A9
:100C800008394A6080F82090816A00291AD0BDE8AE
:100C9000F05F0847082505FA0CF5254212D01B071E
:100CA00010D50B6823F00E030B6090F84010C36B57
:100CB00002FA01F15960826380F8212080F82090C7
:100CC000016BE2E7BDE8F09F080002401C00024013
:100CD0003000024044000240580002406C000240D4
:100CE00030B528B308C8134914221944B1FBF2F1F6
:100CF0008900C16310498163022141771A6843F674
:100D0000F0718A43D0E900142143D0E902452C4315
:100D100021430469214344692143846921431143E8
:100D2000196000214163012242770177084630BDF6
:100D3000012030BDF8FFFDBF0000024070B5044641
:100D400000F008F90546601C02D00448007804440D
:100D500000F000F9401BA042FAD370BD040000204F
:100D60002DE9F84FDFF8B8910024A9F1040B2346D0
:100D70000F2709F1040AABF1040EC9E00125A540D3
:100D80002A40AA427DD1674ED1F804C0ACEB0608D8
:100D9000B44532D014DCBCF1030F3AD009DCBCF10D
:100DA000000F2AD0BCF1010F1CD0BCF1020F31D1D1
:100DB0001DE0BCF1110F17D0BCF1120F2AD119E0C0
:100DC000B8F5881F19D006DCB8F5803F15D0B8F506
:100DD000801F1FD111E0B8F5001F0ED0B8F5041F19
:100DE00018D10AE0CB6815E0CB681B1D12E0CB6878
:100DF00008330FE0CB680C330CE08B682BB1012B70
:100E00004FF0080303D0456104E0042302E00561CC
:100E100000E00023FF2A01D8064601E000F10406A5
:100E20004FEA840501D9A5F12005D6F8008007FA1C
:100E300005FC28EA0C0803FA05F548EA0508C6F897
:100E400000804D68ED0062D5374DAE6946F0010671
:100E5000AE61AD6924F0030605F001050095334D40
:100E600006EB050CDCF80850A607360F07FA06F863
:100E700025EA0805DFF8B880404503D14FF00008A7
:100E800017E044E0DFF8AC80404502D14FF00108A4
:100E90000FE0DFF8A480404502D14FF0020808E0DF
:100EA000DFF89880404502D14FF0030801E04FF091
:100EB000040808FA06F848EA0508CCF808804D68E6
:100EC000D9F80060ED024D4601D5164300E0964387
:100ED0002E604D68DAF80060AD02554601D5164324
:100EE00000E096432E604D68DBF80060AD035D4680
:100EF00001D5164300E096432E604D68DEF8006091
:100F0000ED03754601D5164300E096432E60641C40
:100F10000D682A46E5407FF431AFBDE8F88F000048
:100F200008040140000011100010024000000140C0
:100F300000080140000C0140001001400014014075
:100F40008068084000D0012070470AB101617047F5
:100F50000904FBE701488068704700000400002096
:100F600002488168027811448160704704000020C3
:100F7000074810B5016841F010010160032000F03E
:100F800075F80F2000F006F800F024F8002010BDDE
:100F90000020024070B50D4D04464FF47A71287858
:100FA000B1FBF0F00A490968B1FBF0F000F0DCFA9F
:100FB00048B9102C07D200222146501E00F036F806
:100FC00000206C6070BD012070BD00000400002096
:100FD000100000200C4808B5816941F001018161D1
:100FE000816901F001010091C16941F08051C16145
:100FF000C06900F0805000900448416821F0E06131
:1010000041F00071416008BD001002400000014045
:10101000002809DB00F01F020121914040098000F7
:1010200000F1E020C0F8001170470000F0B40E4B52
:101030001B680C46C3F30223C3F10705042D00D936
:101040000425191D072901D2002300E0DB1E01261B
:1010500006FA05F1491E214099409E40761E164031
:101060003143F0BC01F057BC0CED00E0064900F044
:10107000070208684FF6FF03184040EA0220034ABF
:1010800010430860704700000CED00E00000FA0516
:101090002DE9F0470F46050061D0434E306800F05F
:1010A0000700B84209D2306820F0070038433060AA
:1010B000306800F00700B84251D128683B4C8107E6
:1010C00012D5400703D5606840F4E060606028787E
:1010D000000703D5606840F4605060606068A968EC
:1010E00020F0F000084360602878C00728D06868C6
:1010F000012810D02168022810D0890700292EDA93
:10110000616821F0030101436160FFF723FF80461E
:1011100041F288390DE021688903EFE78901EDE7A5
:10112000FFF718FFA0EB0801494502D90320BDE8ED
:10113000F0876068696800F00C00B0EB810FEFD1B8
:10114000306800F00700B8420BD9306820F0070083
:1011500038433060306800F00700B84201D0012009
:10116000E5E72878400705D56068E96820F4E06085
:10117000084360602878000706D56068296920F474
:10118000605040EAC100606000F038F86168084AC9
:10119000C1F30311515CC840064908600648006865
:1011A000FFF7F8FE0020C2E70020024000100240D6
:1011B000DA29000810000020080000200448054932
:1011C00000684968044AC1F30221515CC840704775
:1011D0001000002000100240EA29000804480549D8
:1011E00000684968044AC1F3C221515CC840704795
:1011F0001000002000100240EA2900080E4A516841
:101200000E4801F00C03042B11D0082B0FD10C4811
:10121000C1F38343C903C05C0AD55168084AC1F3CE
:101220004041921E515C054A5043B0FBF1F07047BB
:1012300004494843704700000010024000127A0041
:10124000CA29000800093D002DE9F84F040070D0BC
:101250002078C04DC00749D06868C0F381000128DC
:1012600007D06868C0F38100022809D16868C0030C
:1012700006D52868800339D560680028E7D035E0B6
:101280006068B0F5803F0BD010B1B0F5A02F11D041
:10129000286820F480302860286820F4802002E04C
:1012A000286840F480302860606890B1FFF752FEF3
:1012B00006460AE0286840F480202860F0E700BF76
:1012C000FFF748FE801B642873D828688003F7D591
:1012D0000CE0FFF73FFE064605E000BFFFF73AFED1
:1012E000801B6428F0D828688003F7D420789A4EB1
:1012F00080074FF001094FF0000839D5686810F0F9
:101300000C0F07D06868C0F38100022809D1686813
:10131000C00306D42868800714D52069012808D1A5
:1013200010E02069B0B1C6F80090FFF713FE074641
:1013300005E00AE1FFF70EFEC01B0228C4D82868AA
:101340008007F7D52868616920F0F80040EAC100FD
:1013500028600DE0C6F80080FFF7FCFD074604E0BA
:10136000FFF7F8FDC01B022823D828688007F7D4B0
:10137000207800072CD57948A169D9B1C0F8009030
:10138000FFF7E8FD074604E0FFF7E4FDC01B022875
:101390000FD8686A8007F7D571484FF4FA51006892
:1013A000B0FBF1F0009000BF0098411E0091FAD20E
:1013B0000EE080E0C0F80080FFF7CCFD074604E0B7
:1013C000FFF7C8FDC01B022875D8686A8007F7D4EC
:1013D0002078400760D5E8690027C00008D4E86994
:1013E00040F08050E861E869012700F080500090EB
:1013F0005C480168C90513D40168834641F48071D3
:101400000160FFF7A7FD824606E000BFFFF7A2FDDF
:10141000A0EB0A0064284ED8DBF80000C005F5D523
:10142000E06801280AD008B1052813D0286A20F006
:1014300001002862286A20F0040002E0286A40F0D7
:1014400001002862E06841F2883B98B1FFF782FD15
:1014500082460BE0286A40F004002862EEE700BFF5
:10146000FFF778FDA0EB0A0159455AD8286A800792
:10147000F6D50CE0FFF76EFD824605E0FFF76AFD4A
:10148000A0EB0A0159454CD8286A8007F6D41FB151
:10149000E86920F08050E861E06988B36968C1F3C9
:1014A0008101022944D00228C6F8608004D0FFF7E9
:1014B00051FD044638E034E0FFF74CFD074604E0F8
:1014C000FFF748FDC01B02282BD828688001F7D4FD
:1014D000206AB0F5803F05D16868A16820F400302B
:1014E00008436860D4E908010843696821F474116D
:1014F00008436860C6F86090FFF72CFD044606E0DC
:1015000025E000BFFFF726FD001B022809D8286848
:101510008001F7D51BE000BFFFF71CFD001B022870
:1015200002D90320BDE8F88F28688001F4D40EE0CA
:101530000128F7D06868226A00F48031914204D112
:10154000616A00F47010884201D00120EAE70020AF
:10155000E8E70000001002400000424280044242DE
:10156000100000200070004010B5401EB0F1807FD8
:1015700001D3012010BD4FF0E02460610F216017FE
:1015800001F0C9F90020A06107202061002010BDF2
:101590007047704770B590F83C20012A26D001248E
:1015A00080F83C40022280F83D2003685A689D681C
:1015B00022F070060A6832435A600D4B02689A4264
:1015C00008D0B2F1804F05D00A4B9A4202D00A4BA4
:1015D0009A4204D1496825F080031943916080F84C
:1015E0003D40002180F83C10084670BD022070BDCF
:1015F000002C0140000400400008004010B5040029
:1016000003D094F83D0010B107E0012010BD002088
:1016100084F83C00204600F01FF8022084F83D00CA
:10162000211D206800F0D8FF012084F8460084F8CE
:101630003E0084F83F0084F8400084F8410084F8BC
:10164000420084F8430084F8440084F8450084F89C
:101650003D00002010BD000008B50068B0F1804FCB
:1016600012D10A48C16941F00101C161C06900227B
:1016700000F00100009011461C20FFF7D7FCBDE8E8
:1016800008401C20FFF7C4BC08BD00000010024049
:1016900090F83D10012901D001207047022180F807
:1016A0003D100168CA6842F00102CA6000680B4937
:1016B000884208D0B0F1804F05D00949884202D055
:1016C0000849884204D1816801F00701062903D046
:1016D000016841F00101016000207047002C0140C9
:1016E000000400400008004070B5044690F83C003B
:1016F0000025012817D0012684F83C60022084F8D8
:101700003D002068826822F0770222F47F428260E6
:101710000868502838D00DDC20284FD005DC90B365
:10172000102811D14AE0022070BD302846D0402850
:101730000AD13BE060282FD070280DD0B0F5805F33
:1017400003D0B0F5005F12D0012584F83D60002081
:1017500084F83C00284670BDCB68D1E9012120689F
:1017600000F076FF2068816841F0770109E0CB68DE
:10177000D1E90121206800F06BFF2068816841F405
:1017800080418160E1E719E0CA684968206800F09B
:1017900071FF5021206806E0CA684968206800F09F
:1017A0007AFF6021206800F05DFFCEE7CA684968D3
:1017B000206800F05FFF40212068F4E722680146BE
:1017C0001046F0E770472DE9F04104460068C6680E
:1017D00005694FF00007A90713D5B10711D5F91E08
:1017E000016101202077206880698007204602D0AF
:1017F000FFF7E8FF04E000F07EF8204600F07CF8F8
:101800002777680716D5700714D521686FF0040094
:101810000861022020772068806910F4407F20460C
:1018200002D0FFF7CFFF04E000F065F8204600F09B
:1018300063F82777280715D5300713D521686FF08F
:1018400008000861042020772068C06980072046CE
:1018500002D0FFF7B7FF04E000F04DF8204600F09B
:101860004BF82777E80616D5F00614D521686FF0F7
:1018700010000861082020772068C06910F4407FBC
:10188000204602D0FFF79EFF04E000F034F8204627
:1018900000F032F82777E80708D0F00706D0216873
:1018A0006FF001000861204600F028F8280608D5EE
:1018B000300606D521686FF0800008612046FFF7EA
:1018C00067FE680608D5700606D521686FF04000EF
:1018D0000861204600F028F8A8060AD5B00608D509
:1018E00021686FF0200008612046BDE8F041FFF755
:1018F00050BEBDE8F08170477047000010B5006829
:10190000B0F1804F0CD100F019FB064C2078401C40
:10191000C0B220700A2803D300F0DAFA0020207049
:1019200010BD0000000000207047704770470000A5
:10193000F8B5016804460868CA684B6910F00F0FD3
:101940004FF0000559D003F0010602F490773743B9
:1019500065D0C10705D0D10503D5616C41F0010107
:101960006164410705D5D90703D0616C41F00201DC
:101970006164810705D5D90703D0616C41F004018A
:101980006164010707D502F02001314303D0616C87
:1019900041F008016164616C00293AD0800604D5E9
:1019A000900602D5204600F0B7FE20684069616CC1
:1019B000C0F38010090700D460B3204600F085FE14
:1019C00020684069400621D52068143050E8001F87
:1019D00021F0400140E80012002AF5D1E06BA8B1E7
:1019E0006D494163E06BFFF785F8002811D0E06B8B
:1019F000416B01B0BDE8F040084783060FD5930660
:101A00000DD52046BDE8F84000F086BE2046FFF721
:101A10008DFFF8BD2046FFF789FF6564F8BD266B92
:101A20002023012E7CD1C6067AD5D60678D5086843
:101A30004868009048694FF00206400640D5E16BC7
:101A4000086840680004000CE8D0A28D8242E5D905
:101A5000E085886920282DD020680C3050E8001FD0
:101A600021F4807140E80012002AF5D1206814307A
:101A700050E8001F21F0010140E80012002AF5D1D2
:101A80002068143050E8001F21F0400140E80012A7
:101A9000002AF5D184F84230256320680C3050E8E4
:101AA000001F21F0100140E80012002AF5D1E06B80
:101AB000FEF7FDFF6663A08DE18D401A81B22AE03A
:101AC000A08DE18D401A81B2E08D0028A6D00029BA
:101AD000A4D022680C3252E8000F20F4907042E843
:101AE0000007002FF5D12068143050E8002F22F0B5
:101AF000010240E80027002FF5D184F84230256329
:101B000020680C3050E8002F22F0100240E800233B
:101B1000002BF5D166632046FFF707FFF8BDFFE70E
:101B200005062BD5150629D594F841002128F5D1B5
:101B3000A068B0F5805F01D12069B0B1206A411C76
:101B40002162216800784860E08C401E0004000C8F
:101B5000E084E3D12068C16821F08001C160206881
:101B6000C16841F04001C160D8E7206A0088C0F335
:101B700008004860206A801C2062E5E74006CDD559
:101B80005006CBD5CA68204622F04002CA6084F8CD
:101B9000413000F036F9C1E7BB26000870B50400FB
:101BA00004D094F84100002510B106E0012070BD7A
:101BB00084F84050204600F023F8242084F84100A7
:101BC0002068C16821F40051C160204600F006FE83
:101BD0002068016921F4904101612068416921F088
:101BE0002A0141612068C16841F40051C160656407
:101BF000202084F8410084F842006563002070BD15
:101C000070B586B0002506460095019502950395AE
:101C10000068224988423ED12149C86940F4003019
:101C2000C861C86900F400300490886940F004007D
:101C3000886188691B4C00F0040004900420009027
:101C4000022001900320039069462046FFF788F8A0
:101C50000820CDE90005694620460295FFF780F887
:101C6000124C1148C4E900058020C4E902502561E6
:101C70006561A5612046E561FFF732F808B1FEF71E
:101C800014FFF4630022114626206662FFF7CEF9A6
:101C90002620FFF7BDF906B070BD000000440040EB
:101CA00000100240000801406C000240800100204A
:101CB0002DE9F84F044690F842009A4616460D4624
:101CC000202802D00220BDE8F88FB5B1AEB10020C7
:101CD0006064222184F842102063FFF73BF9A68557
:101CE0008146E685A0684FF480582027404501D101
:101CF000206920B12E46002529E00120E3E70026D7
:101D000025E04B46002220212046CDF800A000F01F
:101D1000C1FD18B184F842700320D4E726B1A06851
:101D200040451AD038B108E020684068C0F3080088
:101D300025F8020B08E0206978B12068406800F0BF
:101D40007F0000BF06F8010BE08D401EE085E08DAE
:101D50000028D6D184F84270B5E720684068F1E7E2
:101D600070472DE9F843044690F84100984616461E
:101D70000D46202802D00220BDE8F88385B17EB14F
:101D800000206064212084F84100FFF7E3F8A68476
:101D90008146E684A0682027B0F5805F02D003E08A
:101DA0000120E9E7206910B12E4600250EE000264B
:101DB0000CE08021204600F06DFDA8B9C6B116F8F0
:101DC000010B21684860E08C401EE084E08C4B46AB
:101DD0004FF00002CDF800800028EAD14FF040011A
:101DE000204600F057FD40B184F841700320C3E75E
:101DF00035F8020BC0F30800E3E784F841700020D7
:101E0000BAE77047FEE70000F8B5144C6078012689
:101E10000025012806D002281FD1FEF76BFC009098
:101E2000A8B119E0A07868B10D4F00220221384610
:101E3000FFF78BF8C820FEF781FF01220221384608
:101E4000FFF783F8C820FEF779FFE67004E0002072
:101E5000FEF79AFCA670E5706570F8BD14000020CE
:101E6000000C014070B586B000241648009401941F
:101E700002940394816941F0080181618069124EE6
:101E800000F008000490012202213046FFF75DF8BF
:101E900001210225CDE90014CDE90215694630463D
:101EA000FEF75EFF1120CDE9005069463046CDE9CE
:101EB0000245FEF755FF054804704470C48006B023
:101EC00070BD000000100240000C01401400002012
:101ED00070B5184C217800251748012641B1012919
:101EE0000ED0022903D10121FFF72AF8F8B970BDFD
:101EF0000121FFF725F800B926702581257170BDF5
:101F00000121FFF71DF80028207907D078B1218939
:101F10000220642908D96070258106E000B9267185
:101F20002089401C208170BD6670207070BD2570B6
:101F300070BD000014000020000C01402DE9FF5F7F
:101F4000F74FF84C97E80F008DE80F0069462046E0
:101F5000FEF706FF103797E80F008DE80F0069467F
:101F60002046103FFEF7FCFE203797E80F008DE873
:101F70000F0069462046203FFEF7F2FE303797E813
:101F80000F008DE80F0069462046303FFEF7E8FE5F
:101F9000403797E80F008DE80F0069462046403F24
:101FA000FEF7DEFE002220212046FEF7CEFF0022B3
:101FB00040212046FEF7C9FF002280212046FEF77F
:101FC000C4FF4FF4807B002259462046FEF7BDFF38
:101FD000002261152046FEF7B8FFDFF84CA307F199
:101FE00080060AF103059AF8000080B1A5F1010806
:101FF00001285BD006F1800702287DD0A5F10209F7
:1020000006F58076032878D0042877D07BE12878FD
:1020100080070DD507F150000FC88DE80F00694605
:102020002046FEF79DFE012240212046FEF78DFF4F
:10203000287800070DD507F160000FC88DE80F0064
:1020400069462046FEF78CFE012280212046FEF7DD
:102050007CFF287880060DD5703797E80F008DE853
:102060000F0069462046FEF77BFE012259462046B6
:10207000FEF76BFF287840060CD596E80F008DE838
:102080000F0069462046FEF76BFE012251022046F2
:10209000FEF75BFF103696E80F008DE80F006946EB
:1020A0002046FEF75DFE0022202129E198F800007D
:1020B000474680070DD506F120000FC88DE80F00B8
:1020C00069462046FEF74CFE012280212046FEF79D
:1020D0003CFF387800070DD506F130000FC88DE8B9
:1020E0000F0069462046FEF73BFE01225946204676
:1020F000FEF72BFF387802E02EE07FE0D0E0C0064C
:102100000DD506F140000FC88DE80F006946204646
:10211000FEF726FE012251022046FEF716FF287820
:10212000C0070DD006F150000FC88DE80F006946BA
:102130002046FEF715FE012220212046FEF705FF6E
:10214000603696E80F008DE80F0069462046FEF7DE
:1021500007FE00224021D3E098F80000C0070DD010
:10216000703696E80F008DE80F0069462046FEF7AE
:10217000F7FD012240212046FEF7E7FE98F8000017
:10218000464640070CD597E80F008DE80F006946DA
:102190002046FEF7E5FD012259462046FEF7D5FE12
:1021A000307880060DD507F110000FC88DE80F00BC
:1021B00069462046FEF7D4FD012251022046FEF773
:1021C000C4FE287840070DD507F120000FC88DE820
:1021D0000F0069462046FEF7C3FD0122202120465C
:1021E000FEF7B3FE303797E80F008DE80F00694621
:1021F0002046FEF7B5FD0022802181E02878C00648
:102200000DD507F140000FC88DE80F006946204644
:10221000FEF7A6FD012220212046FEF796FE98F843
:10222000000040060DD507F150000FC88DE80F00E3
:1022300069462046FEF794FD012251022046FEF732
:1022400084FE99F800004D4680070DD507F1600027
:102250000FC88DE80F0069462046FEF781FD012278
:1022600080212046FEF771FE287840070DD5703793
:1022700097E80F008DE80F0069462046FEF770FDD5
:10228000012240212046FEF760FE96E80F008DE80F
:102290000F0069462046FEF763FD002259462FE0F5
:1022A00099F800004D46C0070DD006F110000FC888
:1022B0008DE80F0069462046FEF752FD012280217D
:1022C0002046FEF742FE287800070DD506F12000D3
:1022D0000FC88DE80F0069462046FEF741FD012238
:1022E00040212046FEF731FE303696E80F008DE89B
:1022F0000F0069462046FEF733FD00224FF40071BF
:102300002046FEF722FE9AF80010491CC9B28AF84E
:102310000010052902D300218AF80010BDE8FF9FB4
:10232000F4290008000C014024000020094808B5E9
:10233000416941F0010141614069002200F0010062
:10234000009011461020FEF771FEBDE808401020F5
:10235000FEF75EBE0010024070B5194886B0816974
:1023600041F020018161816901F0200104918169BE
:1023700041F004018161816901F0040104918169E6
:1023800041F0100181618069002400F01000009488
:1023900001940294CDE9034001220A4E55032946D7
:1023A0003046FEF7D2FD01200095CDE90104022060
:1023B000039069463046FEF7D3FC06B070BD0000BE
:1023C000001002400010014010B586B000241648ED
:1023D000009401940294039404944FF08041059476
:1023E00001604721C0E9011440F2E731C0E903145C
:1023F0008461FFF703F908B1FEF757FB4FF48050F3
:10240000009069460848FFF76FF908B1FEF74DFBE9
:10241000049404A904480594FFF7BCF8002801D0EF
:10242000FEF743FB06B010BDF00000200C4810B5CD
:102430000A4901604FF4E1314160002181600C22C2
:10244000C160C0E904128161C161FFF7A7FB0028E8
:1024500003D0BDE81040FEF728BB10BD004400408B
:1024600038010020FEE7FEE730B5114885B08169EC
:1024700041F0080181618069002400F008000094A7
:1024800001940294CDE903400A4D224610212846CA
:10249000FEF75BFD4FF4787000900120CDE9010458
:1024A0000220039069462846FEF75AFC05B030BD6D
:1024B00000100240000C014070477047F8B500263C
:1024C000264C35466420FEF739FC2548FDF7D8FF39
:1024D00060606068E8B16D1CEDB21E2DF2D320483B
:1024E0000188ADF80010C1B10024012000FA04F207
:1024F000114200D02646641CE4B2102CF6D33246BA
:102500000A210020FEF74CF90320BDE8F840FEF751
:10251000A7BA144900200870E1E7B0F9122064213D
:1025200092FBF1F213B20A224089002BB0FBF2F3C6
:10253000B3FBF1F0B3FBF2F1B1FBF2F402FB1411C7
:10254000B3FBF2F402FB1432C0B203DBFEF728F94E
:102550000220DAE7FEF724F90120D6E72400002064
:102560000204002016000020FEF7FABC30B58FB040
:1025700028216846FDF728FE14210AA8FDF724FE4D
:1025800001210804CDE900100024029402250491E1
:10259000CDE907504FF4E01009906846FEF754FE6D
:1025A00008B172B6FEE70F20CDE90A054FF480604E
:1025B000CDE90C4002210AA80E94FEF769FD00281F
:1025C00001D072B6FEE70FB030BD70470148FFF78B
:1025D000FAB80000F0000020F0B50268194B1A4C60
:1025E0001A4D4FF08047984205D0B84203D0A04220
:1025F00001D0A84203D122F070064A6832439842C3
:1026000005D0B84203D0A04201D0A84203D122F4A1
:102610004074CA6822434C6922F08002224302605F
:102620008A68C2620A688262984201D109690163BC
:10263000012141610169C90703D0016921F001014C
:102640000161F0BD002C0140000400400008004082
:1026500010B5846842EA032224F47F440A432243EB
:10266000826010BD826822F070020A4342F00701C6
:102670008160704710B5036A046A24F001040462A3
:10268000846924F0F00444EA021423F00A020A43A5
:102690008461026210BD10B5036A046A24F010045C
:1026A0000462846923F0A00324F4704444EA0232F3
:1026B00043EA01118261016210BD10B5406A002138
:1026C000C185C184FFF732F910BD01680C3151E8B2
:1026D000002F22F4907241E80023002BF5D101680D
:1026E000143151E8002F22F0010241E80023002BB1
:1026F000F5D1016B012909D101680C3151E8002F96
:1027000022F0100241E80023002BF5D1202180F8AF
:10271000421000210163704708B590F84210222949
:1027200001D0022008BD82684FF480539A4201D143
:10273000016921B1816A9A421BD04AB10AE002685C
:10274000816A5268C2F308020A80816A891C08E023
:10275000026972B10268526802F07F020A70816AEF
:10276000491C8162C18D491E0904090CC18503D031
:102770001BE002685268F1E70168CA6822F0200293
:10278000CA600168CA6822F48072CA6001684A6936
:1027900022F001024A61202180F8421000214163A9
:1027A000026B012A03D0FFF7DBFA002008BD0163AA
:1027B00001680C3151E8002F22F0100241E800239B
:1027C000002BF5D101680A68D20602D50A6849686B
:1027D0000091818DFFF7A9F8E7E7000070B5044686
:1027E00000680169E26821F44051114301612169E7
:1027F000A0680843616908432168CA6841F20C6314
:102800009A430243CA6020684169A26921F4407179
:10281000114341611E492068884202D1FEF7DEFC67
:1028200001E0FEF7CBFC00EBC00101EB0012606899
:1028300064218000B2FBF0F3B3FBF1F36FF01806F4
:102840007343B2FBF0F5B2FBF0F605EB83053223E0
:1028500003EB0515B5FBF1F5B6FBF1F605F0F00558
:1028600005EB0615B2FBF0F6B2FBF0F0B0FBF1F0B1
:102870006FF01802504306EB800003EB0010B0FB32
:10288000F1F0216800F00F002844886070BD00005E
:10289000003801402DE9F843984617460D46044696
:1028A000089E24E0701C22D0FEF754FBA0EB080029
:1028B000B0421AD8CEB12068C168490717D5802D1B
:1028C00015D0402D13D00168C94309070FD4016802
:1028D0000025406800902046FFF7F7FE082060645E
:1028E00084F840500120BDE8F8830320FBE720680E
:1028F000006835EA000004D00020B842D2D00020A1
:10290000F1E70120F9E700000148FFF711B80000E6
:1029100038010020FEE70907090E002804DB00F15A
:10292000E02080F80014704700F00F0000F1E02074
:1029300080F8141D70470000FEF71AFBFFF716FE23
:10294000FFF70AFDFFF7F2FCFFF770FDFFF73CFD14
:10295000FFF78AFDFFF786FA0520FEF7EFF9154825
:10296000FEF796FE012251031348FEF7EEFA4FF4EC
:10297000FA742046FEF7E2F9104D002202212846A3
:10298000FEF7E3FA4FF49670FEF7D8F90122022120
:102990002846FEF7DAFA2046FEF7D0F90848FDF798
:1029A00090FC084CFFF730FA20780028FAD0FFF7A7
:1029B00085FDF7E7F000002000100140000C014009
:1029C0002C00002017000020010202030405060766
:1029D00008090A0B0C0D0E0F10100000000000007B
:1029E00000000102030406070809000000000102BC
:1029F00003040000200000000000000000000000B0
:102A00000200000040000000000000000000000084
:102A10000200000080000000000000000000000034
:102A200002000000000100000000000000000000A3
:102A30000200000000020000000000000000000092
:102A40000200000040000000010000000000000043
:102A500002000000800000000100000000000000F3
:102A60000200000000010000010000000000000062
:102A70000200000000020000010000000000000051
:102A80000200000020000000010000000000000023
:102A900002000000800000000100000000000000B3
:102AA0000200000000010000010000000000000022
:102AB0000200000000020000010000000000000011
:102AC00002000000200000000100000000000000E3
:102AD00002000000400000000100000000000000B3
:102AE00002000000400000000100000000000000A3
:102AF00002000000000100000100000000000000D2
:102B000002000000000200000100000000000000C0
:102B10000200000020000000010000000000000092
:102B20000200000080000000010000000000000022
:102B30000200000020000000010000000000000072
:102B40000200000000020000010000000000000080
:102B500002000000800000000100000000000000F2
:102B60000200000040000000010000000000000022
:102B70000200000000010000010000000000000051
:102B800002000000800000000100000000000000C2
:102B900002000000400000000100000000000000F2
:102BA0000200000000020000010000000000000020
:102BB00002000000D42B0008000000202C000000C0
:102BC00028010008002C00082C0000204C0A0000FE
:102BD0004401000800000000010000001000000097
:102BE0000000000000127A00000001000000000058
:102BF000000000003801002000000000000000007C
:04000005080000ED02
:00000001FF
